:0400000037EF00F0E6
:1000080033829EAC0AEF00F00CEF00F035EF00F001
:10001800330E136E330E146E230E156E400E166ECD
:10002800C450016E026A036A046A000ECEEC09F03D
:1000380001C00FF002C010F003C011F004C012F0AC
:1000480001EC08F00FC028F010C029F011C02AF008
:1000580012C02BF0A8EC0AF02850326E32C0BEFF56
:0A0068009E9C339211006CEF0BF028
:1010000000001250800B1F6E12501224266E11AE7B
:101010000CEF08F00EEF08F00FEF08F026802650D6
:10102000D8B415EF08F017EF08F02CEF08F02628D9
:10103000D8A41DEF08F01FEF08F027EF08F0000E0E
:101040000F6E000E106E000E116E000E126E118EDD
:10105000000E126E34EF08F0000E0F6E000E106ED0
:10106000000E116E000E126E1650800B1F1A1650D5
:101070001624276E15AE3FEF08F041EF08F042EF5F
:1010800008F027802750D8B448EF08F04AEF08F05E
:101090005FEF08F02728D8A450EF08F052EF08F0CF
:1010A0005AEF08F0000E136E000E146E000E156E4F
:1010B000000E166E158E000E166E67EF08F0000E0D
:1010C000136E000E146E000E156E000E166E135089
:1010D000141015101610D8A470EF08F072EF08F075
:1010E0008AEF08F0000E0F6E000E106E000E116EEB
:1010F000000E126E800E11127F0E12121F5012126D
:101100000FC00FF010C010F011C011F012C012F09B
:10111000CDEF09F02650D8A490EF08F092EF08F038
:101120009CEF08F0000E0F6E000E106E000E116E98
:10113000000E126ECDEF09F0275026C017F0186A86
:10114000175E000E185A7F0E1724206E000E18200E
:10115000216E0FC01BF010C01CF011C01DF012C09A
:101160001EF0000E0F6E000E106E000E116E000EBF
:10117000126E000E226E000E236E000E246E000E04
:10118000256E000E276EFDEF08F02750D8B4CBEF88
:1011900008F0CDEF08F0E4EF08F0D8901B361C36CD
:1011A0001D361E36D8900F3610361136123625AE43
:1011B000DCEF08F0DEEF08F0DFEF08F00F80D890EA
:1011C000223623362436253613501B5C14501C5807
:1011D00015501D5816501E58D8A0F1EF08F0F3EF27
:1011E00008F0FCEF08F0258C13501B5E14501C5ABD
:1011F00015501D5A16501E5A272A190E276403EF40
:1012000009F005EF09F0C5EF08F01B501C101D1088
:101210001E10D8B40EEF09F010EF09F028EF09F016
:10122000228028EF09F0D8900F361036113612368A
:1012300025AE1DEF09F01FEF09F020EF09F00F8038
:10124000D89022362336243625362006D8A021060B
:1012500011AE2DEF09F02FEF09F013EF09F0000E9A
:10126000276E25AE36EF09F038EF09F05CEF09F094
:10127000FF0E2214176EFF0E2314186EFF0E241497
:10128000196E7F0E25141A6E1750181019101A10A7
:10129000D8B44DEF09F04FEF09F053EF09F0010E0C
:1012A000276E5CEF09F00FA058EF09F05AEF09F034
:1012B0005CEF09F04FEF09F02750D8B462EF09F066
:1012C00064EF09F088EF09F0010E0F26000E1022DE
:1012D0001122122212A06FEF09F071EF09F088EFCE
:1012E00009F00FC017F010C018F011C019F012C0AB
:1012F0001AF01A341A3219321832173217C00FF096
:1013000018C010F019C011F01AC012F0204A212A9A
:1013100021BE93EF09F0215008E12028D8A093EFD7
:1013200009F095EF09F0A0EF09F0000E216E20689A
:10133000000E0F6E000E106E000E116E000E126E7B
:1013400021BEADEF09F0215006E12004D8B0ABEF8B
:1013500009F0ADEF09F0BBEF09F0000E216E000EB1
:10136000206E000E0F6E000E106E000E116E000E3D
:10137000126E000E1F6E20C026F026A0C2EF09F0EC
:10138000C4EF09F0C7EF09F0118EC8EF09F0119E04
:10139000D8902630126E7EEF08F01200096E0950C8
:1013A000D8B4D5EF09F0D7EF09F0F9EF09F004BE92
:1013B000DEEF09F0DCEF09F0F9EF09F001C005F00C
:1013C00002C006F003C007F004C008F0051E061EA8
:1013D000071E081E052A000E06220722082205C045
:1013E0000BF006C00CF007C00DF008C00EF001EFC6
:1013F0000AF001C00BF002C00CF003C00DF004C0F5
:101400000EF00150021003100410D8A40AEF0AF0E5
:101410000CEF0AF016EF0AF0000E016E000E026EDD
:10142000000E036E000E046EA7EF0AF0960E0A6E11
:1014300020EF0AF00A2AD8900E320D320C320B320D
:10144000000E0B14056E000E0C14066E000E0D142B
:10145000076EFE0E0E14086E0550061007100810D9
:10146000D8A435EF0AF037EF0AF01AEF0AF045EF8B
:101470000AF00A2A010E0B26000E0C220D220E2263
:10148000D8900E320D320C320B32000E0B14056E5A
:10149000000E0C14066E000E0D14076EFF0E0E14D7
:1014A000086E0550061007100810D8A45AEF0AF06D
:1014B0005CEF0AF039EF0AF064EF0AF00A06D89000
:1014C0000B360C360D360E360DBE69EF0AF06BEF9B
:1014D0000AF073EF0AF0020E0A6071EF0AF073EF80
:1014E0000AF05EEF0AF00AB078EF0AF07AEF0AF03D
:1014F0007BEF0AF00D9ED8900A320AC005F0066A0A
:10150000076A086A05C008F0076A066A056A055096
:101510000B1206500C1207500D1208500E120950F3
:10152000D8B495EF0AF097EF0AF09FEF0AF004BEE7
:101530009EEF0AF09CEF0AF09FEF0AF00E8E0BC0B0
:1015400001F00CC002F00DC003F00EC004F0120058
:101550002A342B34316E3150D8A4B1EF0AF0B3EFF6
:101560000AF0BDEF0AF0000E286E000E296E000E84
:101570002A6E000E2B6E2AEF0BF028C02CF029C02B
:101580002DF02AC02EF02BC02FF0200ECDEF0AF048
:10159000D8902F322E322D322C32E82EC8EF0AF09E
:1015A0002C50306E2A8EFF0E2816FF0E2916FF0EC5
:1015B0002A16000E2B16960E315E31BEE4EF0AF0AD
:1015C000E2EF0AF0FAEF0AF03150800A970FD8B034
:1015D000ECEF0AF0EEEF0AF0F0EF0AF0B3EF0AF0EA
:1015E000D8902B322A3229322832313EF0EF0AF0DD
:1015F00012EF0BF01F0E316400EF0BF002EF0BF057
:101600000AEF0BF0B3EF0AF0D890283629362A36C5
:101610002B3631063150D8A410EF0BF012EF0BF03F
:1016200004EF0BF03050D8B418EF0BF01AEF0BF0BA
:1016300022EF0BF02B1E2A1E291E286C000E2922D9
:101640002A222B2228C028F029C029F02AC02AF0FB
:101650002BC02BF0120071EC0BF066EC0BF054EC8D
:101660000BF05DEC0BF04AEC0BF0030E3CEC0BF0D6
:1016700035EF0BF037EF00F00001646F64C063F0EA
:10168000000163476347C2506319830B6319C26E3D
:10169000C28212000F0138699268050EC26E000EF8
:1016A000C16E120EC06E1200720ED36E640EBB6E4F
:1016B000040EBA6E000EBC6E12000C0EBD6E280E2B
:1016C000BE6E000E0F01496F94941200320ED36E5D
:1016D000000E0001606F12003390339200012BEF77
:0C16E0000BF0F28EF28C9D8CC292120076
:020000040020DA
:08000000FFFFFFFFFFFFFFFF00
:020000040030CA
:0E000000FF080924FFBF81FF0FC00FE00F4073
:0200000400F00A
:1000000056312E3030202D204C65644B3232202D5D
:0C0010002030312F31302F3230323300DD
:00000001FF
